:1000000031C04BC078C349C048C047C046C045C096
:1000100044C043C042C041C040C03FC03EC00403D2
:1000200009041603550053004200740069006E0075
:10003000790053005000490012011001000000082F
:1000400081179F0C0401000200010902190001013F
:100050000080640904000001FF000000070581031F
:1000600008000A0011241FBECFE5D1E0DEBFCDBFDE
:1000700010E0A0E6B0E0E2EEF9E002C005900D92DB
:10008000A436B107D9F710E0A4E6B0E001C01D9294
:10009000AB3AB107E1F743D1A2C4B2CFDC01FB0117
:1000A0006091600050E07D9190E040E820E030E019
:1000B000842F872309F0C09A062E00C0000000009C
:1000C00000000A94D1F7C29A062E00C0000000007A
:1000D00000000A94D1F7990FB1999F5FC098C29818
:1000E00046952F5F3F4F2830310511F790835F5FB2
:1000F000543011F03196D7CF089520916600309199
:1001000067002F5F3F4F30936700209366002150B8
:10011000304080916A0087FF02C0220F331F809316
:100120006B0020FF03C0886080936B00832F86954F
:1001300080936C003695279520936D008BE690E0B8
:100140006FE670E0ABDF08950F931F93CF93DF93BB
:10015000062FEC0110E005C0D0DF8091720089937A
:100160001F5F1017C8F3802FDF91CF911F910F9160
:1001700008957F928F929F92AF92BF92CF92DF921B
:10018000EF92FF920F931F93CF93DF93862EA09051
:100190006800B090690090906400C0906500209164
:1001A0006000E22EFF2435E0EE0CFF1C3A95E1F7EB
:1001B0008C01DD2420E6722E24C0F801808180931A
:1001C0006E009BDF80916B00872580936B00C0E001
:1001D000D0E011C08BE690E06FE670E05FDF9091B9
:1001E000720080916E00981721F4991511F09C15FA
:1001F00029F4CE0DDF1DCA15DB0560F3D3940F5F24
:100200001F4FD814D0F281E0DF91CF911F910F9151
:10021000FF90EF90DF90CF90BF90AF909F908F9026
:100220007F900895CF93DF93EC013981332331F42C
:100230009093900080938F0088E06EC08C81E82FAF
:10024000F0E0313041F480818883D0939000C093F6
:100250008F0081E061C0323011F48A8112C0BE018A
:100260006E5F7F4F4A81242F277081E090E0982FA6
:1002700001C0990F2A95EAF7333029F490958081CF
:100280008923808343C0343019F48081892BF9CFCE
:10029000353049F440936000B99887B3856287BBD5
:1002A00088B3887D04C0363021F480E287BB88BBE8
:1002B0002DC0373049F4CB01BE01F0DED093900061
:1002C000C0938F0084E028C0383031F4409364003C
:1002D0008B81809365001AC08C819D81909367000B
:1002E00080936600393011F480E213C03B3011F482
:1002F00080EA0FC08A819B81909369008093680097
:100300003A3011F480E405C03C3011F080E004C0C4
:1003100080EC80936A008FEFDF91CF91089580E2A7
:1003200087BB88BB80E090E044D38F3F09F081BF5A
:10033000BB9A20E043EB51EFCA010197F1F72F5F21
:100340002431D1F7BB982EE088E190E00FB6F89405
:10035000A89581BD0FBE21BD52D07894A8957BD0C1
:10036000FDCFDF92EF92FF920F931F93CF93DF9316
:1003700000E040E8D42EEE24FF241D2D100F11BF05
:10038000A7D1EC0189E0C433D8070CF0102FD69424
:100390000894E11CF11C88E0E816F10411F0012F2B
:1003A000ECCF115011BF1F5FE12EFF240894E11C18
:1003B000F11C13C08DD19C012453394037FF03C079
:1003C000309521953F4F2C173D0714F09E0101C039
:1003D00011B781B78F5F81BFE90181B790E0E8165F
:1003E000F90644F711BF61B780E090E0EAD2DF91EF
:1003F000CF911F910F91FF90EF90DF900895AC9AED
:100400008BB780628BBF8BE4809381008AE58093F9
:10041000800008951F93DC01162F8091800084FFD7
:1004200007C08091810098E889278093810003C0EC
:100430008AE580938000912FE2E8F0E08D9181932E
:100440009150E1F782E890E0612F3ED11C5F10935C
:1004500080001F9108951F93CF93DF9360919100C7
:10046000635067FDA5C080918E00CCE0D0E0C81B32
:10047000D109CB56DF4F80918D008D3209F086C0B7
:10048000683009F093C083EC809375008AE580930F
:100490006100109274008881807639F0CE01C2DE4E
:1004A000282F8F3F09F461C067C09A8110927E00A7
:1004B0008981882321F410927F0022E04FC085308B
:1004C00019F49093920049C0863099F58B81813060
:1004D00041F488E390E09093900080938F0022E1B4
:1004E00024C0823041F48AE490E09093900080939D
:1004F0008F0029E11AC08330B9F48A81882341F43E
:100500008EE190E09093900080938F0024E00DC0E6
:10051000813051F0823041F482E290E0909390007B
:1005200080938F0026E101C020E080E48093740076
:1005300023C0883021F421E084E990E011C08930A3
:1005400019F49093940009C08A3011F421E006C098
:100550008B3019F48BE48093810020E08EE790E0EB
:100560009093900080938F0007C0888187FD2E8133
:1005700080E88093740006C08F81882319F48E81EF
:10058000821708F0822F8093620010C0809174005F
:1005900087FF0CC0CE01EDDD8F3F21F48EE180930B
:1005A000610004C0882311F0109262001092910043
:1005B0008091610084FF58C0809162008F3F09F4F0
:1005C00053C0182F893008F018E0811B8093620017
:1005D0008091750098E8892780937500112391F127
:1005E0008091740087FF08C086E790E0612FACDD42
:1005F000182F893098F526C020918F0030919000F7
:1006000086FF0DC0A6E7B0E080E090E0F901E80FBA
:10061000F91FE491ED9301961817C1F708C0D901AD
:10062000912FE6E7F0E08D9181939150E1F7115021
:10063000812F90E01F5F0196820F931F909390008F
:1006400080938F0086E790E0612F3ED0612F6C5F32
:100650006C3041F08FEF8093620004C08FEF809385
:1006600062006EE16093610094E186B3887131F4B9
:100670009150D9F71092920010928C0010E09923BB
:1006800009F411E080917300811729F0112309F416
:1006900068DE10937300DF91CF911F910895A82F0A
:1006A000B92F80E090E041E050EA609530E009C069
:1006B0002D9182279795879510F084279527305E96
:1006C000C8F36F5FA8F30895EADF8D939D930895B3
:1006D000A6E088279927AA9569F00197E1F3B399D5
:1006E000FCCFB39BFECF81E09927A6B3019611F012
:1006F000A871D9F70895CF93CFB7CF93C395B39B84
:10070000E9F7B39B0BC0B39B09C0B39B07C0B39B76
:1007100005C0B39B03C0B39B01C0D5C00F92DF934C
:10072000C0918E00DD27CB56DF4F012EB39B03C057
:10073000DF910F90E6CF2F930F931F934F932FEFDF
:100740004F6F06B303FB20F95F933F9350E03BE00C
:1007500065C016B30126502953FDC89556B301272D
:1007600003FB25F92F7306B3B1F05027102713FBB5
:1007700026F906B22230F0F000C016B3012703FBC1
:1007800027F90126502906B22430E8F54F77206872
:1007900016B30000F6CF50274F7D206206B2102F0F
:1007A000000000C006B300265029102713FB26F9CD
:1007B00006B2E2CF4F7B06B3206400C0DACF012639
:1007C0005029187106B269F14E7F2160012F16B3CE
:1007D00028C0002650294D7F06B22260102F29C064
:1007E000012650294B7F06B22460012F2DC016B37D
:1007F00001265029477F2860000006B22EC04F7E98
:1008000006B3206130C0422706B349930026502921
:10081000102706B24FEF13FB20F9297F16B379F2A8
:10082000187159F10126502906B2012703FB21F95D
:10083000237F06B371F2002650293150D0F006B262
:10084000102713FB22F9277E16B351F201265029F7
:10085000012703FB06B223F92F7C49F2000006B3FF
:10086000102713FB24F90026502906B22F7939F2FC
:1008700070CF10E21ABF002719C03B503195C31B3F
:10088000D04010E21ABF0881033C09F10B34F9F0A3
:1008900020918C001981110F1213EDCF4A81441F52
:1008A000093651F10D3211F0013E29F70093930002
:1008B0003F915F914F911F910F912F91DF910F9079
:1008C000CAB7C5FD1BCFCF91CFBFCF91189520914F
:1008D0009300222369F310919100112379F53430AC
:1008E0007AF13093910020938D0010918E003BE0BF
:1008F000311B30938E0024C0009191000130F4F43C
:100900000AE54F7049F43091610034FD1AC000933C
:100910006100C5E7D0E019C03091800034FD11C0FE
:1009200000938000C1E8D0E010C0052710E000C0AF
:1009300021C0052710E0C89508BB14C03AE501C0E6
:1009400032ED032EC0E0D0E032E017B31861C39A55
:1009500008B317BB58E120E84FEF20FF052708BB7D
:10096000279517951C3F28F700004552B0F720FF48
:100970000527279508BB17951C3FB8F629913A958E
:1009800061F7077E10919200110F08BBC250D04052
:1009900011F010938C0010E21ABF086017B3177E95
:1009A000402F477E54E05A95F1F708BB17BB48BB70
:1009B0007FCFE199FECF1FBA8EBBE09A99278DB306
:1009C0000895262FE199FECF1CBA1FBA8EBB2DBB0E
:1009D0000FB6F894E29AE19A0FBE01960895F89442
:0209E000FFCF47
:0409E200325AFF0086
:00000001FF
