:1000000027C036C035C034C033C032C031C030C064
:100010002FC02EC02DC0E0C02BC02AC029C028C0D0
:1000200027C0000000000004030201000000003BA4
:1000300000380000003A0037000101010101010110
:1000400001020202010204081020408004020100A3
:1000500011241FBECFE5D1E0DEBFCDBF20E0A0E67A
:10006000B0E001C01D92A936B207E1F7FBD05FC135
:10007000C7CF90E0FC01EC5BFF4F2491FC01E75CF3
:10008000FF4F8491882399F090E0880F991FFC011D
:10009000ED5CFF4FA591B491FC01E35DFF4F8591AD
:1000A00094918FB7F894EC91E22BEC938FBF089565
:1000B00090E0FC01EE5DFF4F2491FC01EC5BFF4FF3
:1000C0003491FC01E75CFF4FE491EE2359F12223C8
:1000D000B1F0223089F028F4213089F480B78F778D
:1000E0000DC0233029F0243051F48FB58F7D02C02C
:1000F0008FB58F778FBD03C080B78F7D80BFF0E055
:10010000EE0FFF1FE35DFF4FA591B4919FB7F894E9
:10011000611104C08C913095382302C0EC913E2BC4
:100120003C939FBF08953FB7F894809165009091EC
:100130006600A0916700B091680022B708B600FE83
:1001400005C02F3F19F00196A11DB11D3FBFBA2F69
:10015000A92F982F8827BC01CD01620F711D811D29
:10016000911D23E030E040E050E0C8D008958F9228
:100170009F92AF92BF92CF92DF92EF92FF92D3DF26
:100180004B015C0188ECC82ED12CE12CF12CCBDF8B
:10019000DC01CB0188199909AA09BB09883E934063
:1001A000A105B105A0F321E0C21AD108E108F108C8
:1001B00088EE880E83E0981EA11CB11CC114D104E6
:1001C000E104F10421F7FF90EF90DF90CF90BF9012
:1001D000AF909F908F9008951F920F920FB60F923D
:1001E00011242F933F938F939F93AF93BF9380914D
:1001F000610090916200A0916300B0916400309121
:10020000600026E6230F2D3728F029EE230F0196F4
:10021000A11DB11D20936000809361009093620046
:10022000A0936300B0936400809165009091660094
:10023000A0916700B09168000196A11DB11D809347
:10024000650090936600A0936700B0936800BF912B
:10025000AF919F918F913F912F910F900FBE0F9073
:100260001F901895789480B7826080BF80B78160B6
:1002700080BF83B7826083BF83B7816083BF89B744
:10028000816089BF1EBC8EB582608EBD8EB58160D7
:100290008EBD8FB581608FBD329A319A309A379A70
:1002A00080E0E7DE82E0E5DE84E0E3DE86E0E1DEBA
:1002B000C0E0D0E061E080E0FBDE59DF60E080E09C
:1002C000F7DE55DF61E082E0F3DE51DF60E082E0DF
:1002D000EFDE4DDF61E084E0EBDE49DF60E084E0EB
:1002E000E7DE45DF61E086E0E3DE41DF60E086E0F7
:1002F000DFDE3DDF2097F1F283DEDCCFEE27FF2744
:10030000AA27BB2708C0A20FB31FE41FF51F220FA7
:10031000331F441F551F969587957795679598F3DA
:100320007040A9F7009799F7BD01CF010895F8949F
:02033000FFCFFD
:00000001FF
