:1000000010C01FC01EC01DC01CC01BC01AC019C01C
:1000100018C017C016C015C014C013C012C011C03C
:1000200010C011241FBECFE5D1E0DEBFCDBF10E070
:10003000A0E6B0E001C01D92A136B107E1F784D07F
:1000400090C0DECF382F8BB3832B8BBB8BB3562F57
:10005000509585238BBB8AB3832B8ABB8AB3862BAF
:100060008ABB20E068E873E104C0CB010197F1F797
:100070002F5F2417D0F3209360008AB33095832339
:100080008ABB8AB358235ABB0895FF920F931F93DC
:10009000F82E162F00E051C082E061E0412FD2DF40
:1000A00081E062E0412FCEDF84E061E0412FCADFD2
:1000B00081E064E0412FC6DF88E061E0412FC2DFCC
:1000C00081E068E0412FBEDF80E161E0412FBADFCF
:1000D00081E060E1412FB6DF84E062E0412FB2DFD2
:1000E00082E064E0412FAEDF88E062E0412FAADFCA
:1000F00082E068E0412FA6DF80E162E0412FA2DFCD
:1001000082E060E1412F9EDF88E064E0412F9ADFCA
:1001100084E068E0412F96DF80E164E0412F92DFC8
:1001200084E060E1412F8EDF80E168E0412F8ADFCB
:1001300088E060E1412F86DF0F5F0F1508F4ACCF38
:100140001F910F91FF90089580E886BD16BC83E053
:1001500064E69BDF8AE062E398DF84E661E095DF96
:06016000F6CFF894FFCF7A
:00000001FF
