:1000000010C02AC029C028C027C026C025C024C0CF
:1000100023C022C021C020C01FC01EC01DC01CC0E4
:100020001BC011241FBECFE5D1E0DEBFCDBF10E065
:10003000A0E6B0E0E0EAF2E002C005900D92A2383E
:10004000B107D9F710E0A2E8B0E001C01D92A03AD4
:10005000B107E1F7EDD022C1D3CFDC01FA01108264
:100060008C918623E9F78CE18A95F1F788E38A95EC
:10007000F1F78C91862319F081E0808301C0108212
:1000800088E38A95F1F78C91862319F0808182604C
:10009000808388E38A95F1F78C91862319F080811B
:1000A0008460808388E38A95F1F78C91862319F028
:1000B00080818860808388E38A95F1F78C9186231C
:1000C00019F080818061808388E38A95F1F78C91B3
:1000D000862319F080818062808388E38A95F1F716
:1000E0008C91862319F080818064808388E38A95CF
:1000F000F1F78C91862319F080818068808388E3F2
:100100008A95F1F78CE18A95F1F70895FC018081D9
:10011000962F90958923808388E38A95F1F7242F81
:10012000332727FD309520FF03C08081862B02C036
:1001300080818923808388E38A95F1F721FF03C0BA
:100140008081862B02C080818923808388E38A9501
:10015000F1F722FF03C08081862B02C080818923B2
:10016000808388E38A95F1F723FF03C08081862B83
:1001700002C080818923808388E38A95F1F724FF78
:1001800003C08081862B02C080818923808388E31D
:100190008A95F1F725FF03C08081862B02C08081FC
:1001A0008923808388E38A95F1F726FF03C0808145
:1001B000862B02C080818923808388E38A95F1F7AA
:1001C00047FF04C08081862B808303C080819823F1
:1001D000908398E3892F8A95F1F78081862B80831D
:1001E000892F8A95F1F79A95F1F70895DF92EF92AA
:1001F000FF920F931F93CF93DF937C01D62EEA01DA
:1002000000E010E0C7016D2D488180DF0F5F1F4FB8
:10021000898121968823B1F710939F0000939E0057
:10022000DF91CF911F910F91FF90EF90DF90089594
:10023000CF93DF9380E886BD16BCD99AD19A1092ED
:10024000830010928200C0E0D0E089E390E061E09A
:100250004DE950E002DF8BE390E062E040E650E0E1
:10026000C5DFFE01EC57FF4F80919D0080832196F2
:10027000C831D10511F4C0E0D0E08BE390E062E03A
:1002800044E850E0B3DF8BE390E062E042E23EDF1F
:100290008BE390E062E04AE039DFD7CFF894FFCFFC
:1002A00068656C6C6F2E667464692E34342E6563D9
:1002B000686F2E633A20796F7520747970656420B9
:0202C00022001A
:00000001FF
